{
  "_format": "hh-sol-artifact-1",
  "contractName": "EthereumDIDRegistry",
  "sourceName": "contracts/EthereumDIDRegistry.sol",
  "abi": [
    {
      "anonymous": false,
      "inputs": [
        {
          "indexed": true,
          "internalType": "address",
          "name": "identity",
          "type": "address"
        },
        {
          "indexed": false,
          "internalType": "bytes32",
          "name": "name",
          "type": "bytes32"
        },
        {
          "indexed": false,
          "internalType": "bytes",
          "name": "value",
          "type": "bytes"
        },
        {
          "indexed": false,
          "internalType": "uint256",
          "name": "validTo",
          "type": "uint256"
        },
        {
          "indexed": false,
          "internalType": "uint256",
          "name": "previousChange",
          "type": "uint256"
        }
      ],
      "name": "DIDAttributeChanged",
      "type": "event"
    },
    {
      "anonymous": false,
      "inputs": [
        {
          "indexed": true,
          "internalType": "address",
          "name": "identity",
          "type": "address"
        },
        {
          "indexed": false,
          "internalType": "bytes32",
          "name": "delegateType",
          "type": "bytes32"
        },
        {
          "indexed": false,
          "internalType": "address",
          "name": "delegate",
          "type": "address"
        },
        {
          "indexed": false,
          "internalType": "uint256",
          "name": "validTo",
          "type": "uint256"
        },
        {
          "indexed": false,
          "internalType": "uint256",
          "name": "previousChange",
          "type": "uint256"
        }
      ],
      "name": "DIDDelegateChanged",
      "type": "event"
    },
    {
      "anonymous": false,
      "inputs": [
        {
          "indexed": true,
          "internalType": "address",
          "name": "identity",
          "type": "address"
        },
        {
          "indexed": false,
          "internalType": "address",
          "name": "owner",
          "type": "address"
        },
        {
          "indexed": false,
          "internalType": "uint256",
          "name": "previousChange",
          "type": "uint256"
        }
      ],
      "name": "DIDOwnerChanged",
      "type": "event"
    },
    {
      "inputs": [
        {
          "internalType": "address",
          "name": "identity",
          "type": "address"
        },
        {
          "internalType": "bytes32",
          "name": "delegateType",
          "type": "bytes32"
        },
        {
          "internalType": "address",
          "name": "delegate",
          "type": "address"
        },
        {
          "internalType": "uint256",
          "name": "validity",
          "type": "uint256"
        }
      ],
      "name": "addDelegate",
      "outputs": [],
      "stateMutability": "nonpayable",
      "type": "function"
    },
    {
      "inputs": [
        {
          "internalType": "address",
          "name": "identity",
          "type": "address"
        },
        {
          "internalType": "uint8",
          "name": "sigV",
          "type": "uint8"
        },
        {
          "internalType": "bytes32",
          "name": "sigR",
          "type": "bytes32"
        },
        {
          "internalType": "bytes32",
          "name": "sigS",
          "type": "bytes32"
        },
        {
          "internalType": "bytes32",
          "name": "delegateType",
          "type": "bytes32"
        },
        {
          "internalType": "address",
          "name": "delegate",
          "type": "address"
        },
        {
          "internalType": "uint256",
          "name": "validity",
          "type": "uint256"
        }
      ],
      "name": "addDelegateSigned",
      "outputs": [],
      "stateMutability": "nonpayable",
      "type": "function"
    },
    {
      "inputs": [
        {
          "internalType": "address",
          "name": "identity",
          "type": "address"
        },
        {
          "internalType": "address",
          "name": "newOwner",
          "type": "address"
        }
      ],
      "name": "changeOwner",
      "outputs": [],
      "stateMutability": "nonpayable",
      "type": "function"
    },
    {
      "inputs": [
        {
          "internalType": "address",
          "name": "identity",
          "type": "address"
        },
        {
          "internalType": "uint8",
          "name": "sigV",
          "type": "uint8"
        },
        {
          "internalType": "bytes32",
          "name": "sigR",
          "type": "bytes32"
        },
        {
          "internalType": "bytes32",
          "name": "sigS",
          "type": "bytes32"
        },
        {
          "internalType": "address",
          "name": "newOwner",
          "type": "address"
        }
      ],
      "name": "changeOwnerSigned",
      "outputs": [],
      "stateMutability": "nonpayable",
      "type": "function"
    },
    {
      "inputs": [
        {
          "internalType": "address",
          "name": "",
          "type": "address"
        }
      ],
      "name": "changed",
      "outputs": [
        {
          "internalType": "uint256",
          "name": "",
          "type": "uint256"
        }
      ],
      "stateMutability": "view",
      "type": "function"
    },
    {
      "inputs": [
        {
          "internalType": "address",
          "name": "identity",
          "type": "address"
        }
      ],
      "name": "identityOwner",
      "outputs": [
        {
          "internalType": "address",
          "name": "",
          "type": "address"
        }
      ],
      "stateMutability": "view",
      "type": "function"
    },
    {
      "inputs": [
        {
          "internalType": "address",
          "name": "identity",
          "type": "address"
        },
        {
          "internalType": "bytes32",
          "name": "name",
          "type": "bytes32"
        },
        {
          "internalType": "bytes",
          "name": "value",
          "type": "bytes"
        }
      ],
      "name": "revokeAttribute",
      "outputs": [],
      "stateMutability": "nonpayable",
      "type": "function"
    },
    {
      "inputs": [
        {
          "internalType": "address",
          "name": "identity",
          "type": "address"
        },
        {
          "internalType": "uint8",
          "name": "sigV",
          "type": "uint8"
        },
        {
          "internalType": "bytes32",
          "name": "sigR",
          "type": "bytes32"
        },
        {
          "internalType": "bytes32",
          "name": "sigS",
          "type": "bytes32"
        },
        {
          "internalType": "bytes32",
          "name": "name",
          "type": "bytes32"
        },
        {
          "internalType": "bytes",
          "name": "value",
          "type": "bytes"
        }
      ],
      "name": "revokeAttributeSigned",
      "outputs": [],
      "stateMutability": "nonpayable",
      "type": "function"
    },
    {
      "inputs": [
        {
          "internalType": "address",
          "name": "identity",
          "type": "address"
        },
        {
          "internalType": "bytes32",
          "name": "delegateType",
          "type": "bytes32"
        },
        {
          "internalType": "address",
          "name": "delegate",
          "type": "address"
        }
      ],
      "name": "revokeDelegate",
      "outputs": [],
      "stateMutability": "nonpayable",
      "type": "function"
    },
    {
      "inputs": [
        {
          "internalType": "address",
          "name": "identity",
          "type": "address"
        },
        {
          "internalType": "uint8",
          "name": "sigV",
          "type": "uint8"
        },
        {
          "internalType": "bytes32",
          "name": "sigR",
          "type": "bytes32"
        },
        {
          "internalType": "bytes32",
          "name": "sigS",
          "type": "bytes32"
        },
        {
          "internalType": "bytes32",
          "name": "delegateType",
          "type": "bytes32"
        },
        {
          "internalType": "address",
          "name": "delegate",
          "type": "address"
        }
      ],
      "name": "revokeDelegateSigned",
      "outputs": [],
      "stateMutability": "nonpayable",
      "type": "function"
    },
    {
      "inputs": [
        {
          "internalType": "address",
          "name": "identity",
          "type": "address"
        },
        {
          "internalType": "bytes32",
          "name": "name",
          "type": "bytes32"
        },
        {
          "internalType": "bytes",
          "name": "value",
          "type": "bytes"
        },
        {
          "internalType": "uint256",
          "name": "validity",
          "type": "uint256"
        }
      ],
      "name": "setAttribute",
      "outputs": [],
      "stateMutability": "nonpayable",
      "type": "function"
    },
    {
      "inputs": [
        {
          "internalType": "address",
          "name": "identity",
          "type": "address"
        },
        {
          "internalType": "uint8",
          "name": "sigV",
          "type": "uint8"
        },
        {
          "internalType": "bytes32",
          "name": "sigR",
          "type": "bytes32"
        },
        {
          "internalType": "bytes32",
          "name": "sigS",
          "type": "bytes32"
        },
        {
          "internalType": "bytes32",
          "name": "name",
          "type": "bytes32"
        },
        {
          "internalType": "bytes",
          "name": "value",
          "type": "bytes"
        },
        {
          "internalType": "uint256",
          "name": "validity",
          "type": "uint256"
        }
      ],
      "name": "setAttributeSigned",
      "outputs": [],
      "stateMutability": "nonpayable",
      "type": "function"
    },
    {
      "inputs": [
        {
          "internalType": "address",
          "name": "identity",
          "type": "address"
        },
        {
          "internalType": "bytes32",
          "name": "delegateType",
          "type": "bytes32"
        },
        {
          "internalType": "address",
          "name": "delegate",
          "type": "address"
        }
      ],
      "name": "validDelegate",
      "outputs": [
        {
          "internalType": "bool",
          "name": "",
          "type": "bool"
        }
      ],
      "stateMutability": "view",
      "type": "function"
    }
  ],
  "bytecode": "0x6080604052348015600f57600080fd5b50611c638061001f6000396000f3fe608060405234801561001057600080fd5b50600436106100ce5760003560e01c80638733d4e81161008c578063a7068d6611610066578063a7068d66146101dd578063e476af5c146101f0578063f00d4b5d14610203578063f96d0f9f1461021657600080fd5b80638733d4e81461018c57806393072684146101b75780639c2c1b2b146101ca57600080fd5b8062c023da146100d3578063123b5e98146100e8578063240cf1fa146100fb578063622b2a3c1461010e5780637ad4b0a41461016657806380b29f7c14610179575b600080fd5b6100e66100e1366004611679565b610244565b005b6100e66100f63660046116e4565b610386565b6100e661010936600461176d565b6105f4565b61015161011c3660046117c4565b6001600160a01b0392831660009081526001602090815260408083209483529381528382209290941681529252902054421090565b60405190151581526020015b60405180910390f35b6100e6610174366004611800565b6107b1565b6100e66101873660046117c4565b610913565b61019f61019a366004611862565b6109c0565b6040516001600160a01b03909116815260200161015d565b6100e66101c5366004611884565b6109d1565b6100e66101d83660046118e3565b610c15565b6100e66101eb366004611950565b610f40565b6100e66101fe366004611994565b6110fc565b6100e6610211366004611a16565b6112bd565b610236610224366004611862565b60036020526000908152604090205481565b60405190815260200161015d565b61024d846113da565b6001600160a01b0316336001600160a01b0316146102865760405162461bcd60e51b815260040161027d90611a49565b60405180910390fd5b826102e75760405162461bcd60e51b815260206004820152603e6024820152600080516020611bce83398151915260448201527f616d652063616e6e6f7420626520656d70747920666f72207265766f6b650000606482015260840161027d565b6001600160a01b0384166000908152600360209081526040808320546002835281842087855290925280832090519192916103259086908690611a8f565b908152604080519182900360209081018320939093556001600160a01b0388166000818152600390945290832043905591600080516020611c0e83398151915291610377918891889188918890611ac8565b60405180910390a25050505050565b836103f25760405162461bcd60e51b81526020600482015260426024820152600080516020611bce83398151915260448201527f616d652063616e6e6f7420626520656d70747920666f72207369676e65642073606482015261195d60f21b608482015260a40161027d565b600081116104775760405162461bcd60e51b815260206004820152604660248201527f457468657265756d44494452656769737472793a2076616c6964697479206d7560448201527f73742062652067726561746572207468616e207a65726f20666f72207369676e6064820152651959081cd95d60d21b608482015260a40161027d565b6000848484846040516020016104909493929190611af6565b60405160208183030381529060405280519060200120905060006040516020016104cc906b73657441747472696275746560a01b8152600c0190565b60408051601f19818403018152828252805160209182012090830152810183905260600160405160208183030381529060405280519060200120905060006105148b83611403565b90506105238b828c8c8c6114a9565b600061052f8542611b11565b6001600160a01b038d16600090815260036020908152604080832054600283528184208d855290925291829020915192935091839190610572908b908b90611a8f565b90815260200160405180910390208190555043600360008f6001600160a01b03166001600160a01b03168152602001908152602001600020819055508c6001600160a01b0316600080516020611c0e8339815191528a8a8a86866040516105dd959493929190611ac8565b60405180910390a250505050505050505050505050565b6001600160a01b0381166106805760405162461bcd60e51b815260206004820152604760248201527f457468657265756d44494452656769737472793a206e6577206f776e6572206360448201527f616e6e6f74206265207a65726f206164647265737320666f72207369676e6564606482015266206368616e676560c81b608482015260a40161027d565b6040516001600160601b0319606083901b16602082015260009060340160405160208183030381529060405280519060200120905060006040516020016106d8906a31b430b733b2a7bbb732b960a91b8152600b0190565b60408051601f19818403018152828252805160209182012090830152810183905260600160405160208183030381529060405280519060200120905060006107208883611403565b905061072f88828989896114a9565b6001600160a01b03888116600081815260036020818152604080842080548584529482902080546001600160a01b031916978c169788179055928252439092558151948552840182905290927f38a5a6e68f30ed1ab45860a4afb34bcb2fc00f22ca462d249b8a8d40cda6f7a3910160405180910390a2505050505050505050565b6107ba856113da565b6001600160a01b0316336001600160a01b0316146107ea5760405162461bcd60e51b815260040161027d90611a49565b836108415760405162461bcd60e51b81526020600482015260336024820152600080516020611bce833981519152604482015272616d652063616e6e6f7420626520656d70747960681b606482015260840161027d565b600081116108615760405162461bcd60e51b815260040161027d90611b32565b600061086d8242611b11565b6001600160a01b038716600090815260036020908152604080832054600283528184208a8552909252918290209151929350918391906108b09088908890611a8f565b908152604080519182900360209081018320939093556001600160a01b038a16600081815260039094529220439055600080516020611c0e833981519152906109029089908990899088908890611ac8565b60405180910390a250505050505050565b61091c836113da565b6001600160a01b0316336001600160a01b03161461094c5760405162461bcd60e51b815260040161027d90611a49565b6001600160a01b0380841660008181526003602081815260408084208054600184528286208a875284528286209789168652968352818520859055858552929091524390915551600080516020611bee833981519152916109b291879187918790611b8f565b60405180910390a250505050565b60006109cb826113da565b92915050565b6001600160a01b038116610a5c5760405162461bcd60e51b815260206004820152604660248201527f457468657265756d44494452656769737472793a2064656c656761746520636160448201527f6e6e6f74206265207a65726f206164647265737320666f72207369676e6564206064820152657265766f6b6560d01b608482015260a40161027d565b81610adb5760405162461bcd60e51b815260206004820152604360248201527f457468657265756d44494452656769737472793a2064656c656761746554797060448201527f652063616e6e6f7420626520656d70747920666f72207369676e6564207265766064820152626f6b6560e81b608482015260a40161027d565b60008282604051602001610b0692919091825260601b6001600160601b031916602082015260340190565b6040516020818303038152906040528051906020012090506000604051602001610b44906d7265766f6b6544656c656761746560901b8152600e0190565b60408051601f1981840301815282825280516020918201209083015281018390526060016040516020818303038152906040528051906020012090506000610b8c8983611403565b9050610b9b89828a8a8a6114a9565b6001600160a01b03808a1660008181526003602081815260408084208054600184528286208d87528452828620978c168652968352818520859055858552929091524390915551600080516020611bee83398151915291610c01918a918a918790611b8f565b60405180910390a250505050505050505050565b6001600160a01b038216610c9d5760405162461bcd60e51b815260206004820152604360248201527f457468657265756d44494452656769737472793a2064656c656761746520636160448201527f6e6e6f74206265207a65726f206164647265737320666f72207369676e65642060648201526218591960ea1b608482015260a40161027d565b82610d12576040805162461bcd60e51b81526020600482015260248101919091527f457468657265756d44494452656769737472793a2064656c656761746554797060448201527f652063616e6e6f7420626520656d70747920666f72207369676e656420616464606482015260840161027d565b60008111610d975760405162461bcd60e51b815260206004820152604660248201527f457468657265756d44494452656769737472793a2076616c6964697479206d7560448201527f73742062652067726561746572207468616e207a65726f20666f72207369676e60648201526519590818591960d21b608482015260a40161027d565b6040805160208082018690526001600160601b0319606086901b16828401526054808301859052835180840390910181526074830184528051908201206a61646444656c656761746560a81b60948401528351607f818503018152609f8401855280519083012060bf84015260df8084018290528451808503909101815260ff90930190935281519101206000610e2e8a83611403565b9050610e3d8a828b8b8b6114a9565b6000610e498542611b11565b90506000600360008d6001600160a01b03166001600160a01b0316815260200190815260200160002054905081600160008e6001600160a01b03166001600160a01b0316815260200190815260200160002060008a81526020019081526020016000206000896001600160a01b03166001600160a01b031681526020019081526020016000208190555043600360008e6001600160a01b03166001600160a01b03168152602001908152602001600020819055508b6001600160a01b0316600080516020611bee83398151915289898585604051610f2a9493929190611b8f565b60405180910390a2505050505050505050505050565b610f49846113da565b6001600160a01b0316336001600160a01b031614610f795760405162461bcd60e51b815260040161027d90611a49565b6001600160a01b038216610fec5760405162461bcd60e51b815260206004820152603460248201527f457468657265756d44494452656769737472793a2064656c65676174652063616044820152736e6e6f74206265207a65726f206164647265737360601b606482015260840161027d565b826110535760405162461bcd60e51b815260206004820152603160248201527f457468657265756d44494452656769737472793a2064656c6567617465547970604482015270652063616e6e6f7420626520656d70747960781b606482015260840161027d565b600081116110735760405162461bcd60e51b815260040161027d90611b32565b600061107f8242611b11565b6001600160a01b0380871660008181526003602081815260408084208054600184528286208d87528452828620978c1686529683528185208890559385905291905243909155519293509091600080516020611bee833981519152906110ec908890889087908790611b8f565b60405180910390a2505050505050565b8261116b5760405162461bcd60e51b81526020600482015260456024820152600080516020611bce83398151915260448201527f616d652063616e6e6f7420626520656d70747920666f72207369676e6564207260648201526465766f6b6560d81b608482015260a40161027d565b600083838360405160200161118293929190611bb3565b60405160208183030381529060405280519060200120905060006040516020016111c1906e7265766f6b6541747472696275746560881b8152600f0190565b60408051601f19818403018152828252805160209182012090830152810183905260600160405160208183030381529060405280519060200120905060006112098a83611403565b90506112188a828b8b8b6114a9565b6001600160a01b038a16600090815260036020908152604080832054600283528184208a855290925280832090519192916112569089908990611a8f565b908152604080519182900360209081018320939093556001600160a01b038e166000818152600390945290832043905591600080516020611c0e833981519152916112a8918b918b918b918890611ac8565b60405180910390a25050505050505050505050565b60006112c8836113da565b9050336001600160a01b038216146112f25760405162461bcd60e51b815260040161027d90611a49565b6001600160a01b0382166113665760405162461bcd60e51b815260206004820152603560248201527f457468657265756d44494452656769737472793a206e6577206f776e65722063604482015274616e6e6f74206265207a65726f206164647265737360581b606482015260840161027d565b6001600160a01b03838116600081815260036020818152604080842080548584529482902080546001600160a01b031916978a169788179055928252439092558151948552840182905290927f38a5a6e68f30ed1ab45860a4afb34bcb2fc00f22ca462d249b8a8d40cda6f7a391016109b2565b6001600160a01b03808216600090815260208190526040812054909116806109cb575090919050565b6001600160a01b03919091166000908152600360209081526040918290205482513060601b6001600160601b031916818401526034810191909152605480820194909452825180820390940184526074810183528351938201939093207f19457468657265756d205369676e6564204d6573736167653a0a333200000000609485015260b0808501919091528251808503909101815260d0909301909152815191012090565b6040805160008082526020820180845287905260ff861692820192909252606081018490526080810183905260019060a0016020604051602081039080840390855afa1580156114fd573d6000803e3d6000fd5b5050604051601f1901519150506001600160a01b0381166115865760405162461bcd60e51b815260206004820152603960248201527f457468657265756d44494452656769737472793a20696e76616c69642073696760448201527f6e6174757265202865637265636f766572206661696c65642900000000000000606482015260840161027d565b61158f866113da565b6001600160a01b0316816001600160a01b03161461160c5760405162461bcd60e51b815260206004820152603460248201527f457468657265756d44494452656769737472793a207369676e6572206973206e60448201527337ba103a34329031bab93932b73a1037bbb732b960611b606482015260840161027d565b505050505050565b80356001600160a01b038116811461162b57600080fd5b919050565b60008083601f84011261164257600080fd5b50813567ffffffffffffffff81111561165a57600080fd5b60208301915083602082850101111561167257600080fd5b9250929050565b6000806000806060858703121561168f57600080fd5b61169885611614565b935060208501359250604085013567ffffffffffffffff8111156116bb57600080fd5b6116c787828801611630565b95989497509550505050565b803560ff8116811461162b57600080fd5b60008060008060008060008060e0898b03121561170057600080fd5b61170989611614565b975061171760208a016116d3565b965060408901359550606089013594506080890135935060a089013567ffffffffffffffff81111561174857600080fd5b6117548b828c01611630565b999c989b50969995989497949560c00135949350505050565b600080600080600060a0868803121561178557600080fd5b61178e86611614565b945061179c602087016116d3565b935060408601359250606086013591506117b860808701611614565b90509295509295909350565b6000806000606084860312156117d957600080fd5b6117e284611614565b9250602084013591506117f760408501611614565b90509250925092565b60008060008060006080868803121561181857600080fd5b61182186611614565b945060208601359350604086013567ffffffffffffffff81111561184457600080fd5b61185088828901611630565b96999598509660600135949350505050565b60006020828403121561187457600080fd5b61187d82611614565b9392505050565b60008060008060008060c0878903121561189d57600080fd5b6118a687611614565b95506118b4602088016116d3565b94506040870135935060608701359250608087013591506118d760a08801611614565b90509295509295509295565b600080600080600080600060e0888a0312156118fe57600080fd5b61190788611614565b9650611915602089016116d3565b955060408801359450606088013593506080880135925061193860a08901611614565b96999598509396929591949193505060c09091013590565b6000806000806080858703121561196657600080fd5b61196f85611614565b93506020850135925061198460408601611614565b9396929550929360600135925050565b600080600080600080600060c0888a0312156119af57600080fd5b6119b888611614565b96506119c6602089016116d3565b955060408801359450606088013593506080880135925060a088013567ffffffffffffffff8111156119f757600080fd5b611a038a828b01611630565b989b979a50959850939692959293505050565b60008060408385031215611a2957600080fd5b611a3283611614565b9150611a4060208401611614565b90509250929050565b60208082526026908201527f457468657265756d44494452656769737472793a206e6f742063757272656e746040820152651037bbb732b960d11b606082015260800190565b8183823760009101908152919050565b81835281816020850137506000828201602090810191909152601f909101601f19169091010190565b858152608060208201526000611ae2608083018688611a9f565b604083019490945250606001529392505050565b84815282846020830137602092019182015260400192915050565b808201808211156109cb57634e487b7160e01b600052601160045260246000fd5b60208082526037908201527f457468657265756d44494452656769737472793a2076616c6964697479206d7560408201527f73742062652067726561746572207468616e207a65726f000000000000000000606082015260800190565b9384526001600160a01b039290921660208401526040830152606082015260800190565b83815281836020830137600091016020019081529291505056fe457468657265756d44494452656769737472793a20617474726962757465206e5a5084339536bcab65f20799fcc58724588145ca054bd2be626174b27ba156f718ab6b2ae3d64306c00ce663125f2bd680e441a098de1635bd7ad8b0d44965e4a26469706673582212206ac77e9a6e3167c252e5501a0dd40e230c0041b0140d2a948d9a3b62a8d1f04664736f6c634300081c0033",
  "linkReferences": {},
  "deployedLinkReferences": {}
}